{
  "_format": "hh-sol-artifact-1",
  "contractName": "NFTMarket",
  "sourceName": "contracts/Market.sol",
  "abi": [
    {
      "anonymous": false,
      "inputs": [
        {
          "indexed": true,
          "internalType": "uint256",
          "name": "itemId",
          "type": "uint256"
        },
        {
          "indexed": true,
          "internalType": "address",
          "name": "nftContract",
          "type": "address"
        },
        {
          "indexed": true,
          "internalType": "uint256",
          "name": "tokenId",
          "type": "uint256"
        },
        {
          "indexed": false,
          "internalType": "address",
          "name": "seller",
          "type": "address"
        },
        {
          "indexed": false,
          "internalType": "address",
          "name": "owner",
          "type": "address"
        },
        {
          "indexed": false,
          "internalType": "uint256",
          "name": "price",
          "type": "uint256"
        },
        {
          "indexed": false,
          "internalType": "bool",
          "name": "sold",
          "type": "bool"
        }
      ],
      "name": "MarketItemCreated",
      "type": "event"
    },
    {
      "anonymous": false,
      "inputs": [
        {
          "indexed": true,
          "internalType": "uint256",
          "name": "tokenId",
          "type": "uint256"
        }
      ],
      "name": "MarketItemRelisted",
      "type": "event"
    },
    {
      "anonymous": false,
      "inputs": [
        {
          "indexed": true,
          "internalType": "uint256",
          "name": "tokenId",
          "type": "uint256"
        }
      ],
      "name": "MarketItemSold",
      "type": "event"
    },
    {
      "inputs": [
        {
          "internalType": "address",
          "name": "nftContract",
          "type": "address"
        },
        {
          "internalType": "uint256",
          "name": "tokenId",
          "type": "uint256"
        },
        {
          "internalType": "uint256",
          "name": "price",
          "type": "uint256"
        }
      ],
      "name": "createMarketItem",
      "outputs": [],
      "stateMutability": "payable",
      "type": "function"
    },
    {
      "inputs": [
        {
          "internalType": "uint256",
          "name": "itemId",
          "type": "uint256"
        }
      ],
      "name": "createMarketSale",
      "outputs": [],
      "stateMutability": "payable",
      "type": "function"
    },
    {
      "inputs": [],
      "name": "fetchMarketItemCount",
      "outputs": [
        {
          "internalType": "uint256",
          "name": "",
          "type": "uint256"
        }
      ],
      "stateMutability": "view",
      "type": "function"
    },
    {
      "inputs": [],
      "name": "fetchMarketItems",
      "outputs": [
        {
          "components": [
            {
              "internalType": "uint256",
              "name": "itemId",
              "type": "uint256"
            },
            {
              "internalType": "address",
              "name": "nftContract",
              "type": "address"
            },
            {
              "internalType": "uint256",
              "name": "tokenId",
              "type": "uint256"
            },
            {
              "internalType": "address payable",
              "name": "seller",
              "type": "address"
            },
            {
              "internalType": "address payable",
              "name": "owner",
              "type": "address"
            },
            {
              "internalType": "uint256",
              "name": "price",
              "type": "uint256"
            },
            {
              "internalType": "bool",
              "name": "sold",
              "type": "bool"
            }
          ],
          "internalType": "struct NFTMarket.MarketItem[]",
          "name": "",
          "type": "tuple[]"
        }
      ],
      "stateMutability": "view",
      "type": "function"
    },
    {
      "inputs": [],
      "name": "fetchMyNFTs",
      "outputs": [
        {
          "components": [
            {
              "internalType": "uint256",
              "name": "itemId",
              "type": "uint256"
            },
            {
              "internalType": "address",
              "name": "nftContract",
              "type": "address"
            },
            {
              "internalType": "uint256",
              "name": "tokenId",
              "type": "uint256"
            },
            {
              "internalType": "address payable",
              "name": "seller",
              "type": "address"
            },
            {
              "internalType": "address payable",
              "name": "owner",
              "type": "address"
            },
            {
              "internalType": "uint256",
              "name": "price",
              "type": "uint256"
            },
            {
              "internalType": "bool",
              "name": "sold",
              "type": "bool"
            }
          ],
          "internalType": "struct NFTMarket.MarketItem[]",
          "name": "",
          "type": "tuple[]"
        }
      ],
      "stateMutability": "view",
      "type": "function"
    },
    {
      "inputs": [],
      "name": "fetchOwnedNFTCount",
      "outputs": [
        {
          "internalType": "uint256",
          "name": "",
          "type": "uint256"
        }
      ],
      "stateMutability": "view",
      "type": "function"
    },
    {
      "inputs": [
        {
          "internalType": "uint256",
          "name": "price",
          "type": "uint256"
        },
        {
          "internalType": "uint256",
          "name": "tokenId",
          "type": "uint256"
        }
      ],
      "name": "relistItem",
      "outputs": [],
      "stateMutability": "payable",
      "type": "function"
    }
  ],
  "bytecode": "0x608060405234801561001057600080fd5b506001600081905550611a59806100286000396000f3fe6080604052600436106100705760003560e01c806358eb2df51161004e57806358eb2df5146100f657806375ad1b1214610112578063941d72921461012e578063be9af5361461015957610070565b80630f08efe014610075578063202e3740146100a0578063354c565c146100cb575b600080fd5b34801561008157600080fd5b5061008a610175565b6040516100979190611649565b60405180910390f35b3480156100ac57600080fd5b506100b56104aa565b6040516100c29190611649565b60405180910390f35b3480156100d757600080fd5b506100e0610844565b6040516100ed919061171b565b60405180910390f35b610110600480360381019061010b91906112e7565b61086e565b005b61012c6004803603810190610127919061135f565b610b8e565b005b34801561013a57600080fd5b50610143610d96565b604051610150919061171b565b60405180910390f35b610173600480360381019061016e9190611336565b610e53565b005b60606000610183600161105e565b90506000610191600261105e565b61019b600161105e565b6101a591906117e1565b90506000808267ffffffffffffffff8111156101ea577f4e487b7100000000000000000000000000000000000000000000000000000000600052604160045260246000fd5b60405190808252806020026020018201604052801561022357816020015b61021061123c565b8152602001906001900390816102085790505b50905060005b8481101561049f57600073ffffffffffffffffffffffffffffffffffffffff166003600060018461025a919061178b565b815260200190815260200160002060040160009054906101000a900473ffffffffffffffffffffffffffffffffffffffff1673ffffffffffffffffffffffffffffffffffffffff16141561048c5760006001826102b7919061178b565b90506102d8600360008381526020019081526020016000206005015461106c565b6000600360008381526020019081526020016000209050806040518060e0016040529081600082015481526020016001820160009054906101000a900473ffffffffffffffffffffffffffffffffffffffff1673ffffffffffffffffffffffffffffffffffffffff1673ffffffffffffffffffffffffffffffffffffffff168152602001600282015481526020016003820160009054906101000a900473ffffffffffffffffffffffffffffffffffffffff1673ffffffffffffffffffffffffffffffffffffffff1673ffffffffffffffffffffffffffffffffffffffff1681526020016004820160009054906101000a900473ffffffffffffffffffffffffffffffffffffffff1673ffffffffffffffffffffffffffffffffffffffff1673ffffffffffffffffffffffffffffffffffffffff168152602001600582015481526020016006820160009054906101000a900460ff16151515158152505084868151811061046f577f4e487b7100000000000000000000000000000000000000000000000000000000600052603260045260246000fd5b6020026020010181905250600185610487919061178b565b945050505b8080610497906118a2565b915050610229565b508094505050505090565b606060006104b8600161105e565b905060008060005b83811015610561573373ffffffffffffffffffffffffffffffffffffffff16600360006001846104f0919061178b565b815260200190815260200160002060040160009054906101000a900473ffffffffffffffffffffffffffffffffffffffff1673ffffffffffffffffffffffffffffffffffffffff16141561054e5760018361054b919061178b565b92505b8080610559906118a2565b9150506104c0565b5060008267ffffffffffffffff8111156105a4577f4e487b7100000000000000000000000000000000000000000000000000000000600052604160045260246000fd5b6040519080825280602002602001820160405280156105dd57816020015b6105ca61123c565b8152602001906001900390816105c25790505b50905060005b84811015610839573373ffffffffffffffffffffffffffffffffffffffff1660036000600184610613919061178b565b815260200190815260200160002060040160009054906101000a900473ffffffffffffffffffffffffffffffffffffffff1673ffffffffffffffffffffffffffffffffffffffff161415610826576000600182610670919061178b565b90506000600360008381526020019081526020016000209050806040518060e0016040529081600082015481526020016001820160009054906101000a900473ffffffffffffffffffffffffffffffffffffffff1673ffffffffffffffffffffffffffffffffffffffff1673ffffffffffffffffffffffffffffffffffffffff168152602001600282015481526020016003820160009054906101000a900473ffffffffffffffffffffffffffffffffffffffff1673ffffffffffffffffffffffffffffffffffffffff1673ffffffffffffffffffffffffffffffffffffffff1681526020016004820160009054906101000a900473ffffffffffffffffffffffffffffffffffffffff1673ffffffffffffffffffffffffffffffffffffffff1673ffffffffffffffffffffffffffffffffffffffff168152602001600582015481526020016006820160009054906101000a900460ff161515151581525050848681518110610809577f4e487b7100000000000000000000000000000000000000000000000000000000600052603260045260246000fd5b6020026020010181905250600185610821919061178b565b945050505b8080610831906118a2565b9150506105e3565b508094505050505090565b600080610851600261105e565b61085b600161105e565b61086591906117e1565b90508091505090565b600260005414156108b4576040517f08c379a00000000000000000000000000000000000000000000000000000000081526004016108ab906116db565b60405180910390fd5b6002600081905550600081116108ff576040517f08c379a00000000000000000000000000000000000000000000000000000000081526004016108f6906116fb565b60405180910390fd5b6109096001611105565b6000610915600161105e565b90506040518060e001604052808281526020018573ffffffffffffffffffffffffffffffffffffffff1681526020018481526020013373ffffffffffffffffffffffffffffffffffffffff168152602001600073ffffffffffffffffffffffffffffffffffffffff16815260200183815260200160001515815250600360008381526020019081526020016000206000820151816000015560208201518160010160006101000a81548173ffffffffffffffffffffffffffffffffffffffff021916908373ffffffffffffffffffffffffffffffffffffffff1602179055506040820151816002015560608201518160030160006101000a81548173ffffffffffffffffffffffffffffffffffffffff021916908373ffffffffffffffffffffffffffffffffffffffff16021790555060808201518160040160006101000a81548173ffffffffffffffffffffffffffffffffffffffff021916908373ffffffffffffffffffffffffffffffffffffffff16021790555060a0820151816005015560c08201518160060160006101000a81548160ff0219169083151502179055509050508373ffffffffffffffffffffffffffffffffffffffff166323b872dd3330866040518463ffffffff1660e01b8152600401610af6939291906115cd565b600060405180830381600087803b158015610b1057600080fd5b505af1158015610b24573d6000803e3d6000fd5b50505050828473ffffffffffffffffffffffffffffffffffffffff16827f045dfa01dcba2b36aba1d3dc4a874f4b0c5d2fbeb8d2c4b34a7d88c8d8f929d1336000876000604051610b789493929190611604565b60405180910390a4506001600081905550505050565b60026000541415610bd4576040517f08c379a0000000000000000000000000000000000000000000000000000000008152600401610bcb906116db565b60405180910390fd5b600260008190555060008211610c1f576040517f08c379a0000000000000000000000000000000000000000000000000000000008152600401610c16906116fb565b60405180910390fd5b610c5e6040518060400160405280600781526020017f50524943453a20000000000000000000000000000000000000000000000000008152508361111b565b60006003600083815260200190815260200160002060040160006101000a81548173ffffffffffffffffffffffffffffffffffffffff021916908373ffffffffffffffffffffffffffffffffffffffff16021790555081600360008381526020019081526020016000206005018190555060006003600083815260200190815260200160002060060160006101000a81548160ff021916908315150217905550336003600083815260200190815260200160002060030160006101000a81548173ffffffffffffffffffffffffffffffffffffffff021916908373ffffffffffffffffffffffffffffffffffffffff160217905550610d5d60026111b7565b807f90dc5d23627552b3a5d7cd9a227d7fab4652108c1a85d83330aeaa16243a6aef60405160405180910390a260016000819055505050565b600080610da3600161105e565b90506000805b82811015610e4a573373ffffffffffffffffffffffffffffffffffffffff1660036000600184610dd9919061178b565b815260200190815260200160002060040160009054906101000a900473ffffffffffffffffffffffffffffffffffffffff1673ffffffffffffffffffffffffffffffffffffffff161415610e3757600182610e34919061178b565b91505b8080610e42906118a2565b915050610da9565b50809250505090565b60026000541415610e99576040517f08c379a0000000000000000000000000000000000000000000000000000000008152600401610e90906116db565b60405180910390fd5b6002600081905550600060036000838152602001908152602001600020600501549050600060036000848152602001908152602001600020600201549050813414610f19576040517f08c379a0000000000000000000000000000000000000000000000000000000008152600401610f10906116bb565b60405180910390fd5b6003600082815260200190815260200160002060030160009054906101000a900473ffffffffffffffffffffffffffffffffffffffff1673ffffffffffffffffffffffffffffffffffffffff166108fc349081150290604051600060405180830381858888f19350505050158015610f95573d6000803e3d6000fd5b50336003600083815260200190815260200160002060040160006101000a81548173ffffffffffffffffffffffffffffffffffffffff021916908373ffffffffffffffffffffffffffffffffffffffff16021790555060016003600083815260200190815260200160002060060160006101000a81548160ff0219169083151502179055506110246002611105565b807f5edde87e7efe9511fd280717315e9a4c5f46a6a84becfc74084b59e48154084460405160405180910390a25050600160008190555050565b600081600001549050919050565b61110281604051602401611080919061171b565b6040516020818303038152906040527ff5b1bba9000000000000000000000000000000000000000000000000000000007bffffffffffffffffffffffffffffffffffffffffffffffffffffffff19166020820180517bffffffffffffffffffffffffffffffffffffffffffffffffffffffff8381831617835250505050611213565b50565b6001816000016000828254019250508190555050565b6111b3828260405160240161113192919061166b565b6040516020818303038152906040527f9710a9d0000000000000000000000000000000000000000000000000000000007bffffffffffffffffffffffffffffffffffffffffffffffffffffffff19166020820180517bffffffffffffffffffffffffffffffffffffffffffffffffffffffff8381831617835250505050611213565b5050565b60008160000154905060008111611203576040517f08c379a00000000000000000000000000000000000000000000000000000000081526004016111fa9061169b565b60405180910390fd5b6001810382600001819055505050565b60008151905060006a636f6e736f6c652e6c6f679050602083016000808483855afa5050505050565b6040518060e0016040528060008152602001600073ffffffffffffffffffffffffffffffffffffffff16815260200160008152602001600073ffffffffffffffffffffffffffffffffffffffff168152602001600073ffffffffffffffffffffffffffffffffffffffff168152602001600081526020016000151581525090565b6000813590506112cc816119f5565b92915050565b6000813590506112e181611a0c565b92915050565b6000806000606084860312156112fc57600080fd5b600061130a868287016112bd565b935050602061131b868287016112d2565b925050604061132c868287016112d2565b9150509250925092565b60006020828403121561134857600080fd5b6000611356848285016112d2565b91505092915050565b6000806040838503121561137257600080fd5b6000611380858286016112d2565b9250506020611391858286016112d2565b9150509250929050565b60006113a78383611521565b60e08301905092915050565b6113bc81611827565b82525050565b6113cb81611815565b82525050565b6113da81611815565b82525050565b60006113eb82611746565b6113f58185611769565b935061140083611736565b8060005b83811015611431578151611418888261139b565b97506114238361175c565b925050600181019050611404565b5085935050505092915050565b61144781611839565b82525050565b61145681611839565b82525050565b600061146782611751565b611471818561177a565b935061148181856020860161186f565b61148a8161191a565b840191505092915050565b60006114a2601b8361177a565b91506114ad8261192b565b602082019050919050565b60006114c560408361177a565b91506114d082611954565b604082019050919050565b60006114e8601f8361177a565b91506114f3826119a3565b602082019050919050565b600061150b601c8361177a565b9150611516826119cc565b602082019050919050565b60e08201600082015161153760008501826115af565b50602082015161154a60208501826113c2565b50604082015161155d60408501826115af565b50606082015161157060608501826113b3565b50608082015161158360808501826113b3565b5060a082015161159660a08501826115af565b5060c08201516115a960c085018261143e565b50505050565b6115b881611865565b82525050565b6115c781611865565b82525050565b60006060820190506115e260008301866113d1565b6115ef60208301856113d1565b6115fc60408301846115be565b949350505050565b600060808201905061161960008301876113d1565b61162660208301866113d1565b61163360408301856115be565b611640606083018461144d565b95945050505050565b6000602082019050818103600083015261166381846113e0565b905092915050565b60006040820190508181036000830152611685818561145c565b905061169460208301846115be565b9392505050565b600060208201905081810360008301526116b481611495565b9050919050565b600060208201905081810360008301526116d4816114b8565b9050919050565b600060208201905081810360008301526116f4816114db565b9050919050565b60006020820190508181036000830152611714816114fe565b9050919050565b600060208201905061173060008301846115be565b92915050565b6000819050602082019050919050565b600081519050919050565b600081519050919050565b6000602082019050919050565b600082825260208201905092915050565b600082825260208201905092915050565b600061179682611865565b91506117a183611865565b9250827fffffffffffffffffffffffffffffffffffffffffffffffffffffffffffffffff038211156117d6576117d56118eb565b5b828201905092915050565b60006117ec82611865565b91506117f783611865565b92508282101561180a576118096118eb565b5b828203905092915050565b600061182082611845565b9050919050565b600061183282611845565b9050919050565b60008115159050919050565b600073ffffffffffffffffffffffffffffffffffffffff82169050919050565b6000819050919050565b60005b8381101561188d578082015181840152602081019050611872565b8381111561189c576000848401525b50505050565b60006118ad82611865565b91507fffffffffffffffffffffffffffffffffffffffffffffffffffffffffffffffff8214156118e0576118df6118eb565b5b600182019050919050565b7f4e487b7100000000000000000000000000000000000000000000000000000000600052601160045260246000fd5b6000601f19601f8301169050919050565b7f436f756e7465723a2064656372656d656e74206f766572666c6f770000000000600082015250565b7f506c65617365207375626d6974207468652061736b696e67207072696365206960008201527f6e206f7264657220746f20636f6d706c65746520746865207075726368617365602082015250565b7f5265656e7472616e637947756172643a207265656e7472616e742063616c6c00600082015250565b7f5072696365206d757374206265206174206c6561737420312077656900000000600082015250565b6119fe81611815565b8114611a0957600080fd5b50565b611a1581611865565b8114611a2057600080fd5b5056fea2646970667358221220d0be710c8173a1bb0158813c0a9694191fb5a84e0c51b19611b318245d19af3c64736f6c63430008030033",
  "linkReferences": {},
  "deployedLinkReferences": {}
}