{
  "_format": "hh-sol-artifact-1",
  "contractName": "NFT",
  "sourceName": "contracts/NFT.sol",
  "abi": [
    {
      "inputs": [
        {
          "internalType": "address",
          "name": "marketplaceAddress",
          "type": "address"
        }
      ],
      "stateMutability": "nonpayable",
      "type": "constructor"
    },
    {
      "anonymous": false,
      "inputs": [
        {
          "indexed": true,
          "internalType": "address",
          "name": "owner",
          "type": "address"
        },
        {
          "indexed": true,
          "internalType": "address",
          "name": "approved",
          "type": "address"
        },
        {
          "indexed": true,
          "internalType": "uint256",
          "name": "tokenId",
          "type": "uint256"
        }
      ],
      "name": "Approval",
      "type": "event"
    },
    {
      "anonymous": false,
      "inputs": [
        {
          "indexed": true,
          "internalType": "address",
          "name": "owner",
          "type": "address"
        },
        {
          "indexed": true,
          "internalType": "address",
          "name": "operator",
          "type": "address"
        },
        {
          "indexed": false,
          "internalType": "bool",
          "name": "approved",
          "type": "bool"
        }
      ],
      "name": "ApprovalForAll",
      "type": "event"
    },
    {
      "anonymous": false,
      "inputs": [
        {
          "indexed": true,
          "internalType": "address",
          "name": "from",
          "type": "address"
        },
        {
          "indexed": true,
          "internalType": "address",
          "name": "to",
          "type": "address"
        },
        {
          "indexed": true,
          "internalType": "uint256",
          "name": "tokenId",
          "type": "uint256"
        }
      ],
      "name": "Transfer",
      "type": "event"
    },
    {
      "inputs": [
        {
          "internalType": "address",
          "name": "to",
          "type": "address"
        },
        {
          "internalType": "uint256",
          "name": "tokenId",
          "type": "uint256"
        }
      ],
      "name": "approve",
      "outputs": [],
      "stateMutability": "nonpayable",
      "type": "function"
    },
    {
      "inputs": [
        {
          "internalType": "address",
          "name": "owner",
          "type": "address"
        }
      ],
      "name": "balanceOf",
      "outputs": [
        {
          "internalType": "uint256",
          "name": "",
          "type": "uint256"
        }
      ],
      "stateMutability": "view",
      "type": "function"
    },
    {
      "inputs": [
        {
          "internalType": "string",
          "name": "tokenURI",
          "type": "string"
        }
      ],
      "name": "createToken",
      "outputs": [
        {
          "internalType": "uint256",
          "name": "",
          "type": "uint256"
        }
      ],
      "stateMutability": "nonpayable",
      "type": "function"
    },
    {
      "inputs": [
        {
          "internalType": "uint256",
          "name": "tokenId",
          "type": "uint256"
        }
      ],
      "name": "getApproved",
      "outputs": [
        {
          "internalType": "address",
          "name": "",
          "type": "address"
        }
      ],
      "stateMutability": "view",
      "type": "function"
    },
    {
      "inputs": [
        {
          "internalType": "address",
          "name": "owner",
          "type": "address"
        },
        {
          "internalType": "address",
          "name": "operator",
          "type": "address"
        }
      ],
      "name": "isApprovedForAll",
      "outputs": [
        {
          "internalType": "bool",
          "name": "",
          "type": "bool"
        }
      ],
      "stateMutability": "view",
      "type": "function"
    },
    {
      "inputs": [],
      "name": "name",
      "outputs": [
        {
          "internalType": "string",
          "name": "",
          "type": "string"
        }
      ],
      "stateMutability": "view",
      "type": "function"
    },
    {
      "inputs": [
        {
          "internalType": "uint256",
          "name": "tokenId",
          "type": "uint256"
        }
      ],
      "name": "ownerOf",
      "outputs": [
        {
          "internalType": "address",
          "name": "",
          "type": "address"
        }
      ],
      "stateMutability": "view",
      "type": "function"
    },
    {
      "inputs": [
        {
          "internalType": "address",
          "name": "from",
          "type": "address"
        },
        {
          "internalType": "address",
          "name": "to",
          "type": "address"
        },
        {
          "internalType": "uint256",
          "name": "tokenId",
          "type": "uint256"
        }
      ],
      "name": "safeTransferFrom",
      "outputs": [],
      "stateMutability": "nonpayable",
      "type": "function"
    },
    {
      "inputs": [
        {
          "internalType": "address",
          "name": "from",
          "type": "address"
        },
        {
          "internalType": "address",
          "name": "to",
          "type": "address"
        },
        {
          "internalType": "uint256",
          "name": "tokenId",
          "type": "uint256"
        },
        {
          "internalType": "bytes",
          "name": "_data",
          "type": "bytes"
        }
      ],
      "name": "safeTransferFrom",
      "outputs": [],
      "stateMutability": "nonpayable",
      "type": "function"
    },
    {
      "inputs": [
        {
          "internalType": "address",
          "name": "operator",
          "type": "address"
        },
        {
          "internalType": "bool",
          "name": "approved",
          "type": "bool"
        }
      ],
      "name": "setApprovalForAll",
      "outputs": [],
      "stateMutability": "nonpayable",
      "type": "function"
    },
    {
      "inputs": [
        {
          "internalType": "bytes4",
          "name": "interfaceId",
          "type": "bytes4"
        }
      ],
      "name": "supportsInterface",
      "outputs": [
        {
          "internalType": "bool",
          "name": "",
          "type": "bool"
        }
      ],
      "stateMutability": "view",
      "type": "function"
    },
    {
      "inputs": [],
      "name": "symbol",
      "outputs": [
        {
          "internalType": "string",
          "name": "",
          "type": "string"
        }
      ],
      "stateMutability": "view",
      "type": "function"
    },
    {
      "inputs": [
        {
          "internalType": "uint256",
          "name": "tokenId",
          "type": "uint256"
        }
      ],
      "name": "tokenURI",
      "outputs": [
        {
          "internalType": "string",
          "name": "",
          "type": "string"
        }
      ],
      "stateMutability": "view",
      "type": "function"
    },
    {
      "inputs": [
        {
          "internalType": "address",
          "name": "from",
          "type": "address"
        },
        {
          "internalType": "address",
          "name": "to",
          "type": "address"
        },
        {
          "internalType": "uint256",
          "name": "tokenId",
          "type": "uint256"
        }
      ],
      "name": "transferFrom",
      "outputs": [],
      "stateMutability": "nonpayable",
      "type": "function"
    },
    {
      "inputs": [
        {
          "internalType": "address",
          "name": "from",
          "type": "address"
        },
        {
          "internalType": "address",
          "name": "to",
          "type": "address"
        },
        {
          "internalType": "uint256",
          "name": "tokenId",
          "type": "uint256"
        }
      ],
      "name": "transferToken",
      "outputs": [],
      "stateMutability": "nonpayable",
      "type": "function"
    }
  ],
  "bytecode": "0x60806040523480156200001157600080fd5b5060405162002f7538038062002f758339818101604052810190620000379190620001e6565b6040518060400160405280601081526020017f436f6e73656e73797320546f6b656e73000000000000000000000000000000008152506040518060400160405280600481526020017f434f4e53000000000000000000000000000000000000000000000000000000008152508160009080519060200190620000bb9291906200011f565b508060019080519060200190620000d49291906200011f565b50505080600860006101000a81548173ffffffffffffffffffffffffffffffffffffffff021916908373ffffffffffffffffffffffffffffffffffffffff16021790555050620002c5565b8280546200012d9062000246565b90600052602060002090601f0160209004810192826200015157600085556200019d565b82601f106200016c57805160ff19168380011785556200019d565b828001600101855582156200019d579182015b828111156200019c5782518255916020019190600101906200017f565b5b509050620001ac9190620001b0565b5090565b5b80821115620001cb576000816000905550600101620001b1565b5090565b600081519050620001e081620002ab565b92915050565b600060208284031215620001f957600080fd5b60006200020984828501620001cf565b91505092915050565b60006200021f8262000226565b9050919050565b600073ffffffffffffffffffffffffffffffffffffffff82169050919050565b600060028204905060018216806200025f57607f821691505b602082108114156200027657620002756200027c565b5b50919050565b7f4e487b7100000000000000000000000000000000000000000000000000000000600052602260045260246000fd5b620002b68162000212565b8114620002c257600080fd5b50565b612ca080620002d56000396000f3fe608060405234801561001057600080fd5b50600436106100f55760003560e01c80636352211e11610097578063b88d4fde11610066578063b88d4fde14610296578063c87b56dd146102b2578063e985e9c5146102e2578063f5537ede14610312576100f5565b80636352211e146101fc57806370a082311461022c57806395d89b411461025c578063a22cb4651461027a576100f5565b8063095ea7b3116100d3578063095ea7b31461017857806323b872dd1461019457806342842e0e146101b057806345576f94146101cc576100f5565b806301ffc9a7146100fa57806306fdde031461012a578063081812fc14610148575b600080fd5b610114600480360381019061010f9190611ca0565b61032e565b604051610121919061210a565b60405180910390f35b610132610410565b60405161013f9190612125565b60405180910390f35b610162600480360381019061015d9190611d33565b6104a2565b60405161016f91906120a3565b60405180910390f35b610192600480360381019061018d9190611c64565b610527565b005b6101ae60048036038101906101a99190611b5e565b61063f565b005b6101ca60048036038101906101c59190611b5e565b61069f565b005b6101e660048036038101906101e19190611cf2565b6106bf565b6040516101f39190612367565b60405180910390f35b61021660048036038101906102119190611d33565b610723565b60405161022391906120a3565b60405180910390f35b61024660048036038101906102419190611af9565b6107d5565b6040516102539190612367565b60405180910390f35b61026461088d565b6040516102719190612125565b60405180910390f35b610294600480360381019061028f9190611c28565b61091f565b005b6102b060048036038101906102ab9190611bad565b610935565b005b6102cc60048036038101906102c79190611d33565b610997565b6040516102d99190612125565b60405180910390f35b6102fc60048036038101906102f79190611b22565b610ae9565b604051610309919061210a565b60405180910390f35b61032c60048036038101906103279190611b5e565b610b7d565b005b60007f80ac58cd000000000000000000000000000000000000000000000000000000007bffffffffffffffffffffffffffffffffffffffffffffffffffffffff1916827bffffffffffffffffffffffffffffffffffffffffffffffffffffffff191614806103f957507f5b5e139f000000000000000000000000000000000000000000000000000000007bffffffffffffffffffffffffffffffffffffffffffffffffffffffff1916827bffffffffffffffffffffffffffffffffffffffffffffffffffffffff1916145b80610409575061040882610c03565b5b9050919050565b60606000805461041f906125bd565b80601f016020809104026020016040519081016040528092919081815260200182805461044b906125bd565b80156104985780601f1061046d57610100808354040283529160200191610498565b820191906000526020600020905b81548152906001019060200180831161047b57829003601f168201915b5050505050905090565b60006104ad82610c6d565b6104ec576040517f08c379a00000000000000000000000000000000000000000000000000000000081526004016104e3906122a7565b60405180910390fd5b6004600083815260200190815260200160002060009054906101000a900473ffffffffffffffffffffffffffffffffffffffff169050919050565b600061053282610723565b90508073ffffffffffffffffffffffffffffffffffffffff168373ffffffffffffffffffffffffffffffffffffffff1614156105a3576040517f08c379a000000000000000000000000000000000000000000000000000000000815260040161059a90612307565b60405180910390fd5b8073ffffffffffffffffffffffffffffffffffffffff166105c2610cd9565b73ffffffffffffffffffffffffffffffffffffffff1614806105f157506105f0816105eb610cd9565b610ae9565b5b610630576040517f08c379a0000000000000000000000000000000000000000000000000000000008152600401610627906121e7565b60405180910390fd5b61063a8383610ce1565b505050565b61065061064a610cd9565b82610d9a565b61068f576040517f08c379a000000000000000000000000000000000000000000000000000000000815260040161068690612327565b60405180910390fd5b61069a838383610e78565b505050565b6106ba83838360405180602001604052806000815250610935565b505050565b60006106cb60076110d4565b60006106d760076110ea565b90506106e333826110f8565b6106ed81846112c6565b61071a600860009054906101000a900473ffffffffffffffffffffffffffffffffffffffff16600161091f565b80915050919050565b6000806002600084815260200190815260200160002060009054906101000a900473ffffffffffffffffffffffffffffffffffffffff169050600073ffffffffffffffffffffffffffffffffffffffff168173ffffffffffffffffffffffffffffffffffffffff1614156107cc576040517f08c379a00000000000000000000000000000000000000000000000000000000081526004016107c390612227565b60405180910390fd5b80915050919050565b60008073ffffffffffffffffffffffffffffffffffffffff168273ffffffffffffffffffffffffffffffffffffffff161415610846576040517f08c379a000000000000000000000000000000000000000000000000000000000815260040161083d90612207565b60405180910390fd5b600360008373ffffffffffffffffffffffffffffffffffffffff1673ffffffffffffffffffffffffffffffffffffffff168152602001908152602001600020549050919050565b60606001805461089c906125bd565b80601f01602080910402602001604051908101604052809291908181526020018280546108c8906125bd565b80156109155780601f106108ea57610100808354040283529160200191610915565b820191906000526020600020905b8154815290600101906020018083116108f857829003601f168201915b5050505050905090565b61093161092a610cd9565b838361133a565b5050565b610946610940610cd9565b83610d9a565b610985576040517f08c379a000000000000000000000000000000000000000000000000000000000815260040161097c90612327565b60405180910390fd5b610991848484846114a7565b50505050565b60606109a282610c6d565b6109e1576040517f08c379a00000000000000000000000000000000000000000000000000000000081526004016109d890612287565b60405180910390fd5b6000600660008481526020019081526020016000208054610a01906125bd565b80601f0160208091040260200160405190810160405280929190818152602001828054610a2d906125bd565b8015610a7a5780601f10610a4f57610100808354040283529160200191610a7a565b820191906000526020600020905b815481529060010190602001808311610a5d57829003601f168201915b505050505090506000610a8b611503565b9050600081511415610aa1578192505050610ae4565b600082511115610ad6578082604051602001610abe92919061207f565b60405160208183030381529060405292505050610ae4565b610adf8461151a565b925050505b919050565b6000600560008473ffffffffffffffffffffffffffffffffffffffff1673ffffffffffffffffffffffffffffffffffffffff16815260200190815260200160002060008373ffffffffffffffffffffffffffffffffffffffff1673ffffffffffffffffffffffffffffffffffffffff16815260200190815260200160002060009054906101000a900460ff16905092915050565b8273ffffffffffffffffffffffffffffffffffffffff16610b9d82610723565b73ffffffffffffffffffffffffffffffffffffffff1614610bf3576040517f08c379a0000000000000000000000000000000000000000000000000000000008152600401610bea90612347565b60405180910390fd5b610bfe838383610e78565b505050565b60007f01ffc9a7000000000000000000000000000000000000000000000000000000007bffffffffffffffffffffffffffffffffffffffffffffffffffffffff1916827bffffffffffffffffffffffffffffffffffffffffffffffffffffffff1916149050919050565b60008073ffffffffffffffffffffffffffffffffffffffff166002600084815260200190815260200160002060009054906101000a900473ffffffffffffffffffffffffffffffffffffffff1673ffffffffffffffffffffffffffffffffffffffff1614159050919050565b600033905090565b816004600083815260200190815260200160002060006101000a81548173ffffffffffffffffffffffffffffffffffffffff021916908373ffffffffffffffffffffffffffffffffffffffff160217905550808273ffffffffffffffffffffffffffffffffffffffff16610d5483610723565b73ffffffffffffffffffffffffffffffffffffffff167f8c5be1e5ebec7d5bd14f71427d1e84f3dd0314c0f7b2291e5b200ac8c7c3b92560405160405180910390a45050565b6000610da582610c6d565b610de4576040517f08c379a0000000000000000000000000000000000000000000000000000000008152600401610ddb906121c7565b60405180910390fd5b6000610def83610723565b90508073ffffffffffffffffffffffffffffffffffffffff168473ffffffffffffffffffffffffffffffffffffffff161480610e5e57508373ffffffffffffffffffffffffffffffffffffffff16610e46846104a2565b73ffffffffffffffffffffffffffffffffffffffff16145b80610e6f5750610e6e8185610ae9565b5b91505092915050565b8273ffffffffffffffffffffffffffffffffffffffff16610e9882610723565b73ffffffffffffffffffffffffffffffffffffffff1614610eee576040517f08c379a0000000000000000000000000000000000000000000000000000000008152600401610ee5906122c7565b60405180910390fd5b600073ffffffffffffffffffffffffffffffffffffffff168273ffffffffffffffffffffffffffffffffffffffff161415610f5e576040517f08c379a0000000000000000000000000000000000000000000000000000000008152600401610f5590612187565b60405180910390fd5b610f698383836115c1565b610f74600082610ce1565b6001600360008573ffffffffffffffffffffffffffffffffffffffff1673ffffffffffffffffffffffffffffffffffffffff1681526020019081526020016000206000828254610fc491906124d3565b925050819055506001600360008473ffffffffffffffffffffffffffffffffffffffff1673ffffffffffffffffffffffffffffffffffffffff168152602001908152602001600020600082825461101b919061244c565b92505081905550816002600083815260200190815260200160002060006101000a81548173ffffffffffffffffffffffffffffffffffffffff021916908373ffffffffffffffffffffffffffffffffffffffff160217905550808273ffffffffffffffffffffffffffffffffffffffff168473ffffffffffffffffffffffffffffffffffffffff167fddf252ad1be2c89b69c2b068fc378daa952ba7f163c4a11628f55a4df523b3ef60405160405180910390a4505050565b6001816000016000828254019250508190555050565b600081600001549050919050565b600073ffffffffffffffffffffffffffffffffffffffff168273ffffffffffffffffffffffffffffffffffffffff161415611168576040517f08c379a000000000000000000000000000000000000000000000000000000000815260040161115f90612267565b60405180910390fd5b61117181610c6d565b156111b1576040517f08c379a00000000000000000000000000000000000000000000000000000000081526004016111a890612167565b60405180910390fd5b6111bd600083836115c1565b6001600360008473ffffffffffffffffffffffffffffffffffffffff1673ffffffffffffffffffffffffffffffffffffffff168152602001908152602001600020600082825461120d919061244c565b92505081905550816002600083815260200190815260200160002060006101000a81548173ffffffffffffffffffffffffffffffffffffffff021916908373ffffffffffffffffffffffffffffffffffffffff160217905550808273ffffffffffffffffffffffffffffffffffffffff16600073ffffffffffffffffffffffffffffffffffffffff167fddf252ad1be2c89b69c2b068fc378daa952ba7f163c4a11628f55a4df523b3ef60405160405180910390a45050565b6112cf82610c6d565b61130e576040517f08c379a000000000000000000000000000000000000000000000000000000000815260040161130590612247565b60405180910390fd5b8060066000848152602001908152602001600020908051906020019061133592919061191d565b505050565b8173ffffffffffffffffffffffffffffffffffffffff168373ffffffffffffffffffffffffffffffffffffffff1614156113a9576040517f08c379a00000000000000000000000000000000000000000000000000000000081526004016113a0906121a7565b60405180910390fd5b80600560008573ffffffffffffffffffffffffffffffffffffffff1673ffffffffffffffffffffffffffffffffffffffff16815260200190815260200160002060008473ffffffffffffffffffffffffffffffffffffffff1673ffffffffffffffffffffffffffffffffffffffff16815260200190815260200160002060006101000a81548160ff0219169083151502179055508173ffffffffffffffffffffffffffffffffffffffff168373ffffffffffffffffffffffffffffffffffffffff167f17307eab39ab6107e8899845ad3d59bd9653f200f220920489ca2b5937696c318360405161149a919061210a565b60405180910390a3505050565b6114b2848484610e78565b6114be848484846115c6565b6114fd576040517f08c379a00000000000000000000000000000000000000000000000000000000081526004016114f490612147565b60405180910390fd5b50505050565b606060405180602001604052806000815250905090565b606061152582610c6d565b611564576040517f08c379a000000000000000000000000000000000000000000000000000000000815260040161155b906122e7565b60405180910390fd5b600061156e611503565b9050600081511161158e57604051806020016040528060008152506115b9565b806115988461175d565b6040516020016115a992919061207f565b6040516020818303038152906040525b915050919050565b505050565b60006115e78473ffffffffffffffffffffffffffffffffffffffff1661190a565b15611750578373ffffffffffffffffffffffffffffffffffffffff1663150b7a02611610610cd9565b8786866040518563ffffffff1660e01b815260040161163294939291906120be565b602060405180830381600087803b15801561164c57600080fd5b505af192505050801561167d57506040513d601f19601f8201168201806040525081019061167a9190611cc9565b60015b611700573d80600081146116ad576040519150601f19603f3d011682016040523d82523d6000602084013e6116b2565b606091505b506000815114156116f8576040517f08c379a00000000000000000000000000000000000000000000000000000000081526004016116ef90612147565b60405180910390fd5b805181602001fd5b63150b7a0260e01b7bffffffffffffffffffffffffffffffffffffffffffffffffffffffff1916817bffffffffffffffffffffffffffffffffffffffffffffffffffffffff191614915050611755565b600190505b949350505050565b606060008214156117a5576040518060400160405280600181526020017f30000000000000000000000000000000000000000000000000000000000000008152509050611905565b600082905060005b600082146117d75780806117c090612620565b915050600a826117d091906124a2565b91506117ad565b60008167ffffffffffffffff811115611819577f4e487b7100000000000000000000000000000000000000000000000000000000600052604160045260246000fd5b6040519080825280601f01601f19166020018201604052801561184b5781602001600182028036833780820191505090505b5090505b600085146118fe5760018261186491906124d3565b9150600a856118739190612669565b603061187f919061244c565b60f81b8183815181106118bb577f4e487b7100000000000000000000000000000000000000000000000000000000600052603260045260246000fd5b60200101907effffffffffffffffffffffffffffffffffffffffffffffffffffffffffffff1916908160001a905350600a856118f791906124a2565b945061184f565b8093505050505b919050565b600080823b905060008111915050919050565b828054611929906125bd565b90600052602060002090601f01602090048101928261194b5760008555611992565b82601f1061196457805160ff1916838001178555611992565b82800160010185558215611992579182015b82811115611991578251825591602001919060010190611976565b5b50905061199f91906119a3565b5090565b5b808211156119bc5760008160009055506001016119a4565b5090565b60006119d36119ce846123a7565b612382565b9050828152602081018484840111156119eb57600080fd5b6119f684828561257b565b509392505050565b6000611a11611a0c846123d8565b612382565b905082815260208101848484011115611a2957600080fd5b611a3484828561257b565b509392505050565b600081359050611a4b81612c0e565b92915050565b600081359050611a6081612c25565b92915050565b600081359050611a7581612c3c565b92915050565b600081519050611a8a81612c3c565b92915050565b600082601f830112611aa157600080fd5b8135611ab18482602086016119c0565b91505092915050565b600082601f830112611acb57600080fd5b8135611adb8482602086016119fe565b91505092915050565b600081359050611af381612c53565b92915050565b600060208284031215611b0b57600080fd5b6000611b1984828501611a3c565b91505092915050565b60008060408385031215611b3557600080fd5b6000611b4385828601611a3c565b9250506020611b5485828601611a3c565b9150509250929050565b600080600060608486031215611b7357600080fd5b6000611b8186828701611a3c565b9350506020611b9286828701611a3c565b9250506040611ba386828701611ae4565b9150509250925092565b60008060008060808587031215611bc357600080fd5b6000611bd187828801611a3c565b9450506020611be287828801611a3c565b9350506040611bf387828801611ae4565b925050606085013567ffffffffffffffff811115611c1057600080fd5b611c1c87828801611a90565b91505092959194509250565b60008060408385031215611c3b57600080fd5b6000611c4985828601611a3c565b9250506020611c5a85828601611a51565b9150509250929050565b60008060408385031215611c7757600080fd5b6000611c8585828601611a3c565b9250506020611c9685828601611ae4565b9150509250929050565b600060208284031215611cb257600080fd5b6000611cc084828501611a66565b91505092915050565b600060208284031215611cdb57600080fd5b6000611ce984828501611a7b565b91505092915050565b600060208284031215611d0457600080fd5b600082013567ffffffffffffffff811115611d1e57600080fd5b611d2a84828501611aba565b91505092915050565b600060208284031215611d4557600080fd5b6000611d5384828501611ae4565b91505092915050565b611d6581612507565b82525050565b611d7481612519565b82525050565b6000611d8582612409565b611d8f818561241f565b9350611d9f81856020860161258a565b611da881612756565b840191505092915050565b6000611dbe82612414565b611dc88185612430565b9350611dd881856020860161258a565b611de181612756565b840191505092915050565b6000611df782612414565b611e018185612441565b9350611e1181856020860161258a565b80840191505092915050565b6000611e2a603283612430565b9150611e3582612767565b604082019050919050565b6000611e4d601c83612430565b9150611e58826127b6565b602082019050919050565b6000611e70602483612430565b9150611e7b826127df565b604082019050919050565b6000611e93601983612430565b9150611e9e8261282e565b602082019050919050565b6000611eb6602c83612430565b9150611ec182612857565b604082019050919050565b6000611ed9603883612430565b9150611ee4826128a6565b604082019050919050565b6000611efc602a83612430565b9150611f07826128f5565b604082019050919050565b6000611f1f602983612430565b9150611f2a82612944565b604082019050919050565b6000611f42602e83612430565b9150611f4d82612993565b604082019050919050565b6000611f65602083612430565b9150611f70826129e2565b602082019050919050565b6000611f88603183612430565b9150611f9382612a0b565b604082019050919050565b6000611fab602c83612430565b9150611fb682612a5a565b604082019050919050565b6000611fce602983612430565b9150611fd982612aa9565b604082019050919050565b6000611ff1602f83612430565b9150611ffc82612af8565b604082019050919050565b6000612014602183612430565b915061201f82612b47565b604082019050919050565b6000612037603183612430565b915061204282612b96565b604082019050919050565b600061205a602083612430565b915061206582612be5565b602082019050919050565b61207981612571565b82525050565b600061208b8285611dec565b91506120978284611dec565b91508190509392505050565b60006020820190506120b86000830184611d5c565b92915050565b60006080820190506120d36000830187611d5c565b6120e06020830186611d5c565b6120ed6040830185612070565b81810360608301526120ff8184611d7a565b905095945050505050565b600060208201905061211f6000830184611d6b565b92915050565b6000602082019050818103600083015261213f8184611db3565b905092915050565b6000602082019050818103600083015261216081611e1d565b9050919050565b6000602082019050818103600083015261218081611e40565b9050919050565b600060208201905081810360008301526121a081611e63565b9050919050565b600060208201905081810360008301526121c081611e86565b9050919050565b600060208201905081810360008301526121e081611ea9565b9050919050565b6000602082019050818103600083015261220081611ecc565b9050919050565b6000602082019050818103600083015261222081611eef565b9050919050565b6000602082019050818103600083015261224081611f12565b9050919050565b6000602082019050818103600083015261226081611f35565b9050919050565b6000602082019050818103600083015261228081611f58565b9050919050565b600060208201905081810360008301526122a081611f7b565b9050919050565b600060208201905081810360008301526122c081611f9e565b9050919050565b600060208201905081810360008301526122e081611fc1565b9050919050565b6000602082019050818103600083015261230081611fe4565b9050919050565b6000602082019050818103600083015261232081612007565b9050919050565b600060208201905081810360008301526123408161202a565b9050919050565b600060208201905081810360008301526123608161204d565b9050919050565b600060208201905061237c6000830184612070565b92915050565b600061238c61239d565b905061239882826125ef565b919050565b6000604051905090565b600067ffffffffffffffff8211156123c2576123c1612727565b5b6123cb82612756565b9050602081019050919050565b600067ffffffffffffffff8211156123f3576123f2612727565b5b6123fc82612756565b9050602081019050919050565b600081519050919050565b600081519050919050565b600082825260208201905092915050565b600082825260208201905092915050565b600081905092915050565b600061245782612571565b915061246283612571565b9250827fffffffffffffffffffffffffffffffffffffffffffffffffffffffffffffffff038211156124975761249661269a565b5b828201905092915050565b60006124ad82612571565b91506124b883612571565b9250826124c8576124c76126c9565b5b828204905092915050565b60006124de82612571565b91506124e983612571565b9250828210156124fc576124fb61269a565b5b828203905092915050565b600061251282612551565b9050919050565b60008115159050919050565b60007fffffffff0000000000000000000000000000000000000000000000000000000082169050919050565b600073ffffffffffffffffffffffffffffffffffffffff82169050919050565b6000819050919050565b82818337600083830152505050565b60005b838110156125a857808201518184015260208101905061258d565b838111156125b7576000848401525b50505050565b600060028204905060018216806125d557607f821691505b602082108114156125e9576125e86126f8565b5b50919050565b6125f882612756565b810181811067ffffffffffffffff8211171561261757612616612727565b5b80604052505050565b600061262b82612571565b91507fffffffffffffffffffffffffffffffffffffffffffffffffffffffffffffffff82141561265e5761265d61269a565b5b600182019050919050565b600061267482612571565b915061267f83612571565b92508261268f5761268e6126c9565b5b828206905092915050565b7f4e487b7100000000000000000000000000000000000000000000000000000000600052601160045260246000fd5b7f4e487b7100000000000000000000000000000000000000000000000000000000600052601260045260246000fd5b7f4e487b7100000000000000000000000000000000000000000000000000000000600052602260045260246000fd5b7f4e487b7100000000000000000000000000000000000000000000000000000000600052604160045260246000fd5b6000601f19601f8301169050919050565b7f4552433732313a207472616e7366657220746f206e6f6e20455243373231526560008201527f63656976657220696d706c656d656e7465720000000000000000000000000000602082015250565b7f4552433732313a20746f6b656e20616c7265616479206d696e74656400000000600082015250565b7f4552433732313a207472616e7366657220746f20746865207a65726f2061646460008201527f7265737300000000000000000000000000000000000000000000000000000000602082015250565b7f4552433732313a20617070726f766520746f2063616c6c657200000000000000600082015250565b7f4552433732313a206f70657261746f7220717565727920666f72206e6f6e657860008201527f697374656e7420746f6b656e0000000000000000000000000000000000000000602082015250565b7f4552433732313a20617070726f76652063616c6c6572206973206e6f74206f7760008201527f6e6572206e6f7220617070726f76656420666f7220616c6c0000000000000000602082015250565b7f4552433732313a2062616c616e636520717565727920666f7220746865207a6560008201527f726f206164647265737300000000000000000000000000000000000000000000602082015250565b7f4552433732313a206f776e657220717565727920666f72206e6f6e657869737460008201527f656e7420746f6b656e0000000000000000000000000000000000000000000000602082015250565b7f45524337323155524953746f726167653a2055524920736574206f66206e6f6e60008201527f6578697374656e7420746f6b656e000000000000000000000000000000000000602082015250565b7f4552433732313a206d696e7420746f20746865207a65726f2061646472657373600082015250565b7f45524337323155524953746f726167653a2055524920717565727920666f722060008201527f6e6f6e6578697374656e7420746f6b656e000000000000000000000000000000602082015250565b7f4552433732313a20617070726f76656420717565727920666f72206e6f6e657860008201527f697374656e7420746f6b656e0000000000000000000000000000000000000000602082015250565b7f4552433732313a207472616e73666572206f6620746f6b656e2074686174206960008201527f73206e6f74206f776e0000000000000000000000000000000000000000000000602082015250565b7f4552433732314d657461646174613a2055524920717565727920666f72206e6f60008201527f6e6578697374656e7420746f6b656e0000000000000000000000000000000000602082015250565b7f4552433732313a20617070726f76616c20746f2063757272656e74206f776e6560008201527f7200000000000000000000000000000000000000000000000000000000000000602082015250565b7f4552433732313a207472616e736665722063616c6c6572206973206e6f74206f60008201527f776e6572206e6f7220617070726f766564000000000000000000000000000000602082015250565b7f46726f6d2061646472657373206d75737420626520746f6b656e206f776e6572600082015250565b612c1781612507565b8114612c2257600080fd5b50565b612c2e81612519565b8114612c3957600080fd5b50565b612c4581612525565b8114612c5057600080fd5b50565b612c5c81612571565b8114612c6757600080fd5b5056fea264697066735822122065811561ec83800215c1d08e002ae03d146fab4e6ddbe45be850a9de7e8ccf3864736f6c63430008030033",
  "linkReferences": {},
  "deployedLinkReferences": {}
}